:100000000010002005290000D9250000D925000096
:1000100000000000000000000000000000000000E0
:10002000000000000000000000000000D9250000D2
:100030000000000000000000D9250000D9250000C4
:10004000D9250000D9250000D9250000D9250000B8
:10005000D9250000D9250000D9250000D9250000A8
:10006000D9250000D9250000D9250000D925000098
:10007000D9250000D9250000D9250000D925000088
:10008000D9250000D9250000D9250000D925000078
:10009000D9250000D9250000D9250000D925000068
:1000A000D9250000D9250000D9250000D925000058
:1000B000D9250000D9250000D9250000D925000048
:1000C000D9250000D9250000D9250000D925000038
:1000D000D9250000D9250000D9250000D925000028
:1000E000D9250000D9250000D9250000D925000018
:1000F000D9250000D9250000D9250000D925000008
:10010000D9250000D9250000D9250000D9250000F7
:10011000D9250000D9250000D9250000D9250000E7
:10012000D9250000D9250000D9250000D9250000D7
:10013000D9250000D9250000D9250000D9250000C7
:10014000D9250000D9250000D9250000D9250000B7
:10015000D9250000D9250000D9250000D9250000A7
:10016000D9250000D9250000D9250000D925000097
:10017000D9250000D9250000D9250000D925000087
:10018000D9250000D9250000D9250000D925000077
:10019000D9250000D9250000D9250000D925000067
:1001A000D9250000D9250000D9250000D925000057
:1001B000D9250000D9250000D9250000D925000047
:1001C000D9250000D9250000D9250000D925000037
:1001D000D9250000D925000000F002F800F0ADF8A4
:1001E0000CA030C8083824182D18671EA246AB464C
:1001F00054465D46AC4201D100F09FF87E460F3E6A
:10020000B6460FCC0126334200D0FB1A3343A24638
:10021000AB4618479C4B0000BC4B00000023002459
:1002200000250026103A01D378C1FBD8520700D32D
:1002300030C100D50B60704710B56E2902D100F0B7
:100240007FFC10BD702902D100F06BFA10BD662949
:1002500002D104F0F7F910BD652902D104F0F2F9DA
:1002600010BD672902D104F0EDF910BD612902D15A
:1002700004F0F0F910BD03681B0A01D38023194371
:10028000692902D100F0D8F910BD642902D100F02B
:10029000D3F910BD752902D100F0CEF910BD6F2938
:1002A00002D100F055FD10BD782902D100F026FAE8
:1002B00010BDE92902D100F0F1FC10BDE42902D102
:1002C00000F0ECFC10BDF52902D100F0E7FC10BDF8
:1002D000EF2902D100F048FD10BDF82902D100F04D
:1002E0001BFA10BD0368DB0901D38023194363297E
:1002F00002D100F069FC10BD732902D100F06CFC42
:1003000010BDE32902D101F0C2F910BDF32902D1D9
:1003100001F0C5F910BD002010BD1FB501F0E4F9D2
:1003200004000020002104F009F9401C6060002056
:10033000002104F019F9E0601FBD0648854603B4AA
:1003400002F0F0FD03BC01F073FD01F087FD02F047
:10035000F5FE00000010002070B505460C4616465C
:1003600002E00FCC0FC5103E102EFAD2082E02D399
:1003700003CC03C5083E042E07D301CC01C5361FAC
:1003800003E021782970641C6D1C761EF9D270BDC3
:100390007046F0477047000000487047B8170020CB
:1003A00070B50446051F00F05DFB0068002C1AD0F4
:1003B000446801E020466468002C01D0AC42F9D3C7
:1003C00001680A18AA4204D12A6805468918016002
:1003D00000E0456028684119A14205D16168696063
:1003E00021684018286070BD6C6070BD10B5202A6F
:1003F00004DB0146203A9140002010BD91402023AB
:100400009C1A0346E3401943904010BD10B5202AC2
:1004100004DB0846203AD040002110BD0B462024C2
:10042000D340D040A21A91400843194610BD43431F
:10043000514330B55C18010C130C0D4692B25D436C
:1004400080B251432C19054655430A0C09044D1935
:1004500062415843010C00044019514130BDFEB5C2
:10046000054610460C46184373D0AE468C46002015
:10047000AD1A01469C4167D36646002701243D46DC
:10048000B61A9D4102D313463A4621246546764664
:100490002F04360C3E432D0CB61A9D4104D3150C87
:1004A0001B042B4312041034654676462F06360A89
:1004B0003E432D0AB61A9D4104D3150E1B022B4351
:1004C00012020834654676462F0736093E432D0949
:1004D000B61A9D4104D3150F1B012B431201241D95
:1004E00065467646AF07B6083E43AD08B61A9D414D
:1004F00004D3950F9B002B439200A41C65467646BF
:10050000EF0776083E436D08B61A9D411AD392183C
:100510005B41641C16E00018764665464941B71AEF
:100520009D410191009009D36046B11A98418E46D1
:100530008446009801990025401C6941DD07520856
:100540002A435B08641EE6D57246634603B0F0BDDD
:10055000FFE700200146C046C0462A462346F5E78D
:100560007CB51D4616460C00009001D00019401EB7
:10057000084B7B442A4669460190304600F0F9FA60
:10058000002C054603D06946002000F005FB2846F4
:100590007CBD00002D06000070B50446856900682A
:1005A000C10601D5302600E02026C00707D070BD67
:1005B00062683046A1689047206A401C20626D1E28
:1005C000F6D570BD70B5044685690078C00707D1BF
:1005D00070BD6268A16820209047206A401C20629C
:1005E0006D1EF6D570BD70B50C460546012A05D0C6
:1005F0002878800600D5EA69002302E0012305E09F
:100600005B1C934202D2E05C0028F9D1A869E6188D
:10061000C01AA861286AC01828622846FFF7BCFFE4
:1006200004E06A682078A968641C9047B442F8D353
:100630002846FFF7C7FF70BDF7B50025752910687C
:10064000009914A611D000F011FA002802DA4042F5
:1006500011A608E0009909688A0701D50FA602E0F3
:10066000490704D50EA6012501E000F008FA009F15
:100670000024243704E000F02EFC30313955641C8E
:100680000028F8D12B4632462146009800F000FAA7
:10069000FEBD0000000000002D0000002B00000047
:1006A00020000000F8B50F460188090502D5224C4C
:1006B0007C4402E0204C7C440E3405460021243565
:1006C00008E016071209360FA65D6E541E07324366
:1006D0001B09491C16461E43F3D122460478002309
:1006E000240705D5702F06D0002901D0022311322E
:1006F00000F0CEF9F8BD01231032F9E770B50446D9
:100700000D462146106800F0BAF90023024629463A
:100710002046FFF7C7FF70BDD21DD308DB000CCB0E
:10072000C0E730B403682024126823430360082321
:10073000C36130BC0023B5E7B03F0000F3B5044609
:10074000002081B020622046E1688847002872D0EE
:10075000252802D06268A168ABE0594F00267F448B
:100760002046E16888472028054608DB312D06D25F
:10077000781920380078002801D00643F0E7B00748
:1007800001D5042086430020E0610746A0612A2DA0
:100790000AD0284603F0CAFE002827D0B800001966
:1007A000303D0090856119E00298BA00121902C824
:1007B000916102902046E1688847012F054617D1D4
:1007C000E06900281FDA202086431CE000980A21F7
:1007D0008069484300994019303888612046E168B3
:1007E0008847054603F0A2FE0028EFD1012F0AD06A
:1007F0002E2D08D12046E168884705462020064373
:100800007F1C022FC3DBA069002803DA4042A061ED
:1008100001200643F00701D0102086436C2D0BD039
:10082000682D09D04C2D3CD06A2D38D0742D38D08D
:100830007A2D36D016E040E0E1682F462046884702
:10084000B842054609D16C2F29D001208002E16809
:10085000064320468847054604E06C2F1DD0FF2044
:1008600001300643002D28D028464138192803D8E6
:100870000120C00206432035204626602946029A00
:100880001646FFF7D9FC002810D001280BD0F61D22
:10089000F008C0000830029055E74020E1E78020D2
:1008A000D5E70020D3E7361D02964CE7626828465C
:1008B000A1689047206A401C44E7206AFEBD000002
:1008C0002A3F0000F8B5042A2CD3830712D00B78F6
:1008D000491C0370401C521E83070BD00B78491C27
:1008E0000370401C521E830704D00B78491C037010
:1008F000401C521E8B079B0F05D0C91ADF00202316
:10090000DE1B08C90AE0FFF727FDF8BD1D4608C930
:10091000FD401C46B4402C4310C0121F042AF5D2DF
:10092000F308C91A521EF0D40B78491C0370401CFE
:10093000521EEAD40B78491C0370401C012AE4D4EF
:1009400009780170F8BD01E004C0091F0429FBD239
:100950008B0701D50280801CC90700D00270704748
:1009600000290BD0C30702D00270401C491E022987
:1009700004D3830702D50280801C891EE3E700228E
:10098000EEE70022DFE70000024670B50A43920757
:100990002AD11E4DEE0104C808C9541B94433440AB
:1009A00017D0D0B2D9B2401A2106014310D190B26B
:1009B00099B2401A210401430AD110021902000A17
:1009C000090A401A2102014302D1100E190E401AE1
:1009D00070BD9A42DFD010BA19BA884201D90120FD
:1009E00070BD0020C04370BD02780B78401C491CCC
:1009F000002A09D09A4207D102780B78401C491C82
:100A0000002A01D09A42EFD0D01A70BD0101010135
:100A100070477047704710B501469E240002CA1502
:100A2000A307002A02D01843002A04DBA21A002AD6
:100A30000CDDD04010BD1206120E01D1400040085E
:100A4000A21A03D4D04040420028F3DDFF22480020
:100A50001206904201D9002010BDC817C04358406B
:100A600010BD704700487047BC17002009684A0550
:100A700001D540B27047C905FCD500B2704709687E
:100A80004A0501D5C0B27047C905FCD580B2704790
:100A9000FFB504460D4681B02430009021688806D9
:100AA00004D51022E0699143216000E00120A842B2
:100AB00001DD471B00E000270498A1697A1910188E
:100AC000081AA0612078C00602D42046FFF764FD12
:100AD000002608E003986268A168805D9047206A5C
:100AE000401C761C206204988642F3DB2078C00606
:100AF0000AD52046FFF750FD06E06268A168302065
:100B00009047206A401C206238467F1E0028F4DC93
:100B100007E000986268A168405D9047206A401C29
:100B2000206228466D1E0028F3DC2046FFF74AFDB0
:100B30002078000602D5022005B0F0BD0120FBE7B9
:100B400011680268006A530501D5087009E0D305F1
:100B500001D5088005E0130602D5C21705C100E0E3
:100B6000086001207047000001694A1C0261087892
:100B7000704700B58FB0029100210591054901939E
:100B800079440391114604906846FFF7D7FD0FB0F2
:100B900000BD0000E5FFFFFF0A681070521C0A60EC
:100BA00070470CC908399A4202D2531C0B6010706E
:100BB000704710B54369002B02D0C046C04601E023
:100BC000FFF711FD012010BD1278014624310A7093
:100BD00000224A700122ECE711680022D243E8E7C4
:100BE000F7B50446154686B02B487844002703C85D
:100BF0003E460090019111E007986A467100415A03
:100C000002A800F050FD411C07D02178890603D5C9
:100C1000E269391891420ED83F18761C2078800678
:100C200002D5E069B84206DDAE42E5DB0798710007
:100C3000405A0028E0D1A069C01BA0612046FFF700
:100C4000ABFC154878445A3803C800900020019145
:100C500016E041006A460798415A02A800F023FDB9
:100C60000590401C0AD0002505E0626802A8A16832
:100C7000405D90476D1C05988542F6D30498401C52
:100C8000B0420490E5DB206AC01920622046FFF7DD
:100C900099FC09B0F0BD0000B23A0000F7B5D21DD2
:100CA0000025D20815A6D200F52905CA11D0002AC0
:100CB00005DA00214042914111A60A4608E0009958
:100CC00009688B0701D50FA602E0490701D50EA6DA
:100CD00001251146009F0024243704E000F018F994
:100CE00030323A55641C02460A43F7D12B4632464D
:100CF00021460098FFF7CCFEFEBD0000000000007A
:100D00002D0000002B0000002000000070B50446FC
:100D10000021243408E05507D2086D0F30356554A2
:100D20005D072A43DB08491C15461D43F3D10468BF
:100D3000002310A2250708D520252C400C4304D001
:100D4000C46901230CA2641EC461FFF7A1FE70BD3B
:100D500010B5044621461068FFF791FE00230246B5
:100D60002046FFF7D3FF10BDD21DD108C9000CC922
:100D7000CCE7000000000000300000000022030962
:100D80008B422CD3030A8B4211D300239C464EE0A6
:100D900003460B433CD4002243088B4231D3030962
:100DA0008B421CD3030A8B4201D394463FE0C30914
:100DB0008B4201D3CB01C01A524183098B4201D32C
:100DC0008B01C01A524143098B4201D34B01C01A17
:100DD000524103098B4201D30B01C01A5241C3088F
:100DE0008B4201D3CB00C01A524183088B4201D3FE
:100DF0008B00C01A524143088B4201D34B00C01AEA
:100E00005241411A00D201465241104670475DE0FE
:100E1000CA0F00D04942031000D3404253409C46C1
:100E2000002203098B422DD3030A8B4212D389017E
:100E3000FC2212BA030A8B420CD3890192118B4215
:100E400008D3890192118B4204D389013AD09211BF
:100E500000E08909C3098B4201D3CB01C01A52417A
:100E600083098B4201D38B01C01A524143098B4243
:100E700001D34B01C01A524103098B4201D30B012C
:100E8000C01A5241C3088B4201D3CB00C01A524151
:100E900083088B4201D38B00C01A5241D9D2430838
:100EA0008B4201D34B00C01A5241411A00D2014675
:100EB0005241104663465B1001D34042002B00D5DF
:100EC0004942704763465B1000D3404201B50020A1
:100ED000C046C04602BD01468008081A0209101823
:100EE000020A1018020C1018C008820012185200D2
:100EF000891A01E0401C0A390A29FBD27047000018
:100F000010B500F0F1FB001D10BD00BF3136000030
:100F10000B4670B5024689078008084319469D08AC
:100F2000141AA94125090807054308092C19484145
:100F3000250A01060D43010A2C194141200C0D041C
:100F400028430D0C00194D41002140194D41C008A6
:100F500069070843E908840F8D002543840024189D
:100F60004D4124196D41121BAB4107E00925ED43AA
:100F70002C11521963410024401C61411C460A2572
:100F80000026551BB441F1D270BD0000FFB50C46E0
:100F90001E468FB003CA089009914F007D0D00D105
:100FA0006D1E002108460020C0460321099A8905CC
:100FB0000840002A03DA8200801840080840800DAB
:100FC00001280A9002DD0020C0430A9008980743D8
:100FD0000DD0F048F0492818484307141898002805
:100FE0001DD07542291E1DDD0A9842421BE018984B
:100FF000012802D00020302104E00020F24305E067
:101000002154401CB042FBDB30460022189B0021DB
:1010100021540F998B600A60486013B0F0BDBD1B6E
:101020006D1CDFE70A9A002900DA69420BA800F07C
:10103000A3FB0BAB07CB03AB07C30899099800F0E0
:1010400007FC6B4607C30146D4480918002D0091E0
:101050000BDDD24903980A9A49424018002303A99C
:101060000390684600F064FE08E003990A9A0023A2
:10107000081803A90390684600F004FE6B4607C3F6
:101080000004000C03D00020C043410800E01046DB
:10109000189A002A03D00022009215461EE0751E01
:1010A00005D4FFF735FF303262556D1EF9D50122A8
:1010B0000843079602D000227F1C04E020783028E5
:1010C00001D100227F1E002A069787D01EE0112D35
:1010D00007DAFFF71DFF303262556D1C02460A43E6
:1010E000F5D1084303D00098002819D00EE0002164
:1010F000681E05E0235C625C63542254401E491C58
:101100008142F7DBA81B401E07950690079A1899A5
:101110000020A0540F98079B069A81600CC07CE7C2
:1011200011260020189059E7D21DF0B50D4604464F
:10113000D10893B0C90003C90C900D9103F0E0F9F8
:1011400002460D98C00F01D02D2007E020688107CE
:1011500001D52B2002E04007C00F4001032A0F9069
:1011600001D0072A05DB03462946204600F0C0FAD5
:101170000EE12078800601D5E76900E006272846C1
:10118000652D04D0662814D0672D69D12DE000208C
:10119000112F009001DB112300E07B1C0CAA03A996
:1011A00010A8FFF7F3FE1199002610987D1C0E91F0
:1011B00042E001203B460CAAC0070B9001200090A2
:1011C00003A910A8FFF7E2FE119D129810990026BE
:1011D00000280E9501D1781C0D18781B02D44642C8
:1011E0007D1C761EE81B00903AE0012F00DA0127F3
:1011F0000020112F009001DD112300E03B460CAAD6
:1012000003A910A8FFF7C2FE11993D4610980026C9
:101210000E91217809070BD40E99A94200DA0D46E8
:1012200003A9012D04DD4A19203AD27F302A06D0C5
:10123000B84201DA011D04DA012100910FE06D1EB0
:10124000EFE7002802DC86192D1A03E0411CA942B1
:1012500000DD0D46801B401C00900120C0070B9054
:101260002078000705D40098A84202DB0020C04384
:10127000009069460020C8720B98012102AF033725
:10128000C907884225D0022010902B2011900B987E
:1012900000280BDA40420B902D20119006E00B98AD
:1012A000FFF719FE30317F1E0B9039701099481EE0
:1012B00000291090F3DC0B980028F0D111987F1EC4
:1012C00038702088000501D5452000E065207F1E8C
:1012D000387001A8C01BC01D0B900F98002800D0CB
:1012E000012041190098C01709180B980818A16926
:1012F000081A401EA0612078C00602D42046FFF7DD
:101300004BF90F98002805D06268A1689047206AC1
:10131000401C20622078C00625D52046FFF73CF906
:1013200021E0002E07DB0E98B04204DD03A86268BE
:10133000805DA16802E06268A16830209047206A61
:10134000761C401C20620098401E002800900AD1A4
:1013500000F0CAF9C06862680168405CA168904703
:10136000206A401C206228466D1E0028D9DC07E058
:1013700062683878A1687F1C9047206A401C206210
:101380000B99481E00290B90F2DC2046FFF71AF952
:10139000032042E601FCFFFF104D0000E1DFFFFFEC
:1013A000D21DF0B504460D46D0088DB0C000466889
:1013B00007683146384603F0A3F80246F00F01D023
:1013C0002D2307E02068810701D52B2302E0400789
:1013D000C00F43016846002B037001D0012000E0DC
:1013E0000020032A0A9001D0072A04DB2946204660
:1013F00000F07EF92DE12078800601D40D2500E073
:10140000E5697000400D0D2D01904BDA300D002183
:101410000B9008460020C046032189050840002E95
:1014200005DA82008018C20F10184010084080159D
:10143000012801DD0020C043A9000023182906D39C
:101440009C460A460123183A1B07D34003E00122B9
:101450001205CA4094460C31202902D33A4620395D
:1014600000E032468A40002802DD002A06D119E059
:10147000002817D10121C9078A4213D319466346B0
:101480007F185E41002806D10120C007824202D1A8
:10149000084687439E430B98310D814202D0019844
:1014A000401C01902088000502D57149794402E072
:1014B0006F49794419396B460A9830221A540A98B0
:1014C0000A7C401C1A54401C0A900198002801DC38
:1014D000302000E031201872019A0120002A02D049
:1014E000644BD21804E072003A4302D0614A521CA5
:1014F0000192002D02DC2278120703D56A462E20C5
:10150000507202200022864694460CE032033601D7
:10151000120F6D1E8B5C02AA13546246521C401CB3
:101520009446052A01DA002DF0DC002202AE08E024
:101530003B0F3F01CB5C521C6D1E3354401C082AEC
:1015400001DA002DF4DC23689A0601D511E0401E73
:10155000704504DD3218203AD27F302AF7D00028B7
:1015600007DD3218203AD27F2E2A02D11A0700D482
:10157000401E002D03DD3E223254401C6D1E497C6E
:1015800031540199401C002906DA2D21471C3154A1
:1015900001984042019003E02B21471C31540198EF
:1015A0007D21C900884206DBFFF7F2FB3030F055A1
:1015B0007F1C019101E0642808DB01986421FFF79A
:1015C000E7FB3030F0557F1C019101E00A2806DB73
:1015D00001980A21FFF7DCFB3030F0557F1C0198A1
:1015E0000A21FFF7D5FB3031F1550A98A1697F1C1C
:1015F0007A191018081AA0612078C00602D4204673
:10160000FEF7CAFF216A6E460A980818206204E0B5
:1016100062683078A168761C90470A98401E0A904C
:10162000401CF5D12078C00602D52046FEF7B4FF55
:1016300002AE09E03078761C3E280DD06268A168C1
:101640009047206A401C20627F1EF3D22046FEF79E
:10165000B9FF0DB00320F0BD206A4019206203E0FD
:101660006268A168302090476D1EEDD3F8E7000056
:101670000B32000001FCFFFF10B54369002B02D0C4
:10168000C046C04601E0FFF7ABFA012010BD12884A
:101690000146243182840022C2840122ECE71168D1
:1016A0000022D243E8E7F8B516460C460546FFF798
:1016B00027FC0368FF200230C05C012807D0FF2C04
:1016C0000FD8185D00280CD001202C70F8BDFF3316
:1016D0003246214608331868C71828460023B84701
:1016E000F8BD0020C043F8BD00487047C017002077
:1016F000F8B51F46044601230068DB0203260146B5
:101700001840072A05DB002801D017A506E017A519
:1017100004E0002801D016A500E016A510208143A2
:101720002160A069C01E002FA06101D0401EA061F1
:101730002046FEF731FF002F09D038466268A168C5
:101740009047206A401C2062C01C206206E0206A8C
:10175000FAE762682878A1686D1C9047761EF8D277
:101760002046FEF72FFFF8BD4E414E006E616E0021
:10177000494E4600696E6600F7B516468AB0334892
:1017800078446C4603467C33C06F5A689B680DC42E
:101790002E487844763003AC0DC80DC43720C00104
:1017A000081837211B30FFF7F3FA05460C46803D39
:1017B0001B3C02D56442012000E000200027099074
:1017C00010E0E0070CD00C202049784379443246E1
:1017D0004C3941186846012300F054FA6B4607C3A0
:1017E00064107F1C002CECD1184F7F442E3F16E074
:1017F000E80712D02001C0190EC80691089307927D
:101800000068F04201D1981908903246012306A9D8
:1018100003A800F037FA03AB07C36D10641C002D5A
:10182000E6D10998002806D032466946012303A86C
:1018300000F07EFA05E001233246694603A800F075
:1018400021FA0A9B07C30DB0F0BD00004C2F000029
:10185000034640000A4610B5400D0BD00121C907D0
:101860000F24A40200191C0364082143540D2143D2
:10187000D20207E000210120F2E7D40F4900214302
:101880005200401E0029F8DADB0FDB07184310BDB9
:10189000FFB50D46144685B04868516802F017FE42
:1018A00000910190A868A16802F011FE02910390D6
:1018B000A868616802F00BFE029A12188242029236
:1018C00001D2012000E00020019A0B18D218002854
:1018D000019202D08A4202D903E08A4201D2012059
:1018E00000E000200099081800906868A16802F0E4
:1018F000EEFD029A12188242029201D2012000E00B
:101900000020019A0B18D2180028019202D08A42B6
:1019100002D903E08A4201D2012000E000200099B0
:1019200008180090286821684000490040084908CC
:101930004018FA49471814E001994000C90F0843BC
:101940000090019802994000C90F08430190029845
:1019500003994000C90F08430290039840007F1E7E
:10196000039000980028E7DA0898002801D0EC4E90
:1019700000E00026B74201DA012000E00020002844
:1019800004902AD0F71BF806C00E15D0029B202128
:10199000091A039A8B401A430392029A019BC24090
:1019A0008B401A430292019A009BC2408B400099DF
:1019B0001A430192C14000917B110DD06F46032064
:1019C000C11A03D500218200B95003E08A008100CA
:1019D000BA587A50401EF3D537460398029900282A
:1019E00000D00120014308980291002808460CD03D
:1019F000002800D001200199019A490508430121DE
:101A0000D20AC902D202019200E001210E9B0122FA
:101A1000D207012B02D0002B03D013E0002807D1FE
:101A200020E0904204D890420CD1019B0B4209D097
:101A3000019B5918019105D10099491C009101D1D0
:101A40007F1C009200280DD0102108460020C046BF
:101A50000498002806D00F98002803D008210846D3
:101A60000020C04628682168019B009A4840C10FA9
:101A70000598C90739430EC009B0F0BDFFB587B05E
:101A8000099A089808995368926840688968964648
:101A90000022039317469446089A12685300099A45
:101AA0005B081268520052089A1A9E4BD4180A9A80
:101AB000002A01D0352200E04022069200220123B4
:101AC00015460492DB07059324E0002D05D17546E9
:101AD0000346039E4D1BB34109D375466646039BDF
:101AE000491B049D9841059B7519AC465F416346AF
:101AF0003B4308D0059B049EDD0776082E435B0818
:101B00000496059301E0521E641EC50FED074918A7
:101B10004041521C069B9A42D7DB002D04D17546EA
:101B2000039A6B1A824101D203200CE0039A0B4600
:101B30006B404240134303D0014303D0012002E035
:101B4000022000E0002061460191002100970291EF
:101B50000A99002905D0614640020143704B01916A
:101B600002E08007002302909C4201DA012000E09D
:101B7000002007003AD01A1BD006C00E15D0029DD7
:101B80002021019C091AC5408C402543029C8C40B1
:101B900000D001242543019C0295009DC4408D4046
:101BA00000992C430194C140009154111DD06D4601
:101BB0000221002202290CD10320001B07E000288B
:101BC00004DB8600AE59002E00D00122401C032801
:101BD000F5DB081B02D588002A5004E08000285855
:101BE00010438A00A850491EE3D51C460A980028D5
:101BF00002980CD0002800D001200199019A4905D3
:101C000008430121D20AC902D202019200E0012157
:101C1000109B0122D207012B02D0002B03D013E02E
:101C2000002807D11FE0904204D890420CD1019BBC
:101C30000B4209D0019B5918019105D10099491C0B
:101C4000009101D1641C009200280CD0102108469C
:101C50000020C046002F06D01198002803D008218C
:101C600008460020C04608980999019A009B006820
:101C700009684840C10F0798C907214382600AC01C
:101C80000BB0F0BD00B585B0019300920A46014645
:101C9000002302A8FFF7FCFD02A807C805B000BD9D
:101CA000FFB50A461F4685B00799019301230091AD
:101CB000014602A8FFF7ECFD02990398049ECA0FA3
:101CC0004900D20700920F22490892028C1A002183
:101CD000002800DB0C46450013486D08844214D3ED
:101CE000079A002A04DA441E0026104DF64302E04B
:101CF00004460D460E46102108460020C046002F1F
:101D000003D0042108460020C0462005E90A084304
:101D1000009908436905F20A1143ADE602C0FFFFCE
:101D2000013C0000FF3F0000FF070000FFFFFF7FB6
:101D300000B585B0019300920A460146002302A82F
:101D4000FFF79CFE02A807C8A8E7FFB50A461F4692
:101D500085B00799019301230091014602A8FFF77E
:101D60008DFE02990398049ECA0F4900D207009283
:101D70000F22490892028C1A0021002800DB0C4631
:101D8000450011486D08844214D3079A002A04DAEA
:101D9000441E00260D4DF64302E004460D460E4655
:101DA000102108460020C046002F03D00421084619
:101DB0000020C0462005E90A084300990843690548
:101DC000F20A114358E60000FF070000FFFFFF7F03
:101DD00070B58D180478401CA207920F01D10278CB
:101DE000401C231106D10378401C03E00678401CF8
:101DF0000E70491C521EF9D1002B15D002780C260A
:101E000034408A1A401C0C2C03D0A401121B9B1CCA
:101E100008E004782402121B401CF8E714780C70C8
:101E2000491C521C5B1EF9D5A942D3D3002070BDBA
:101E3000054909B9064800E0044811B90649FEF70A
:101E40006CBA0449FEF769BAB016000050290020A8
:101E500048290020004000200000002080B501F04B
:101E6000C1FD80BC01BC864601F080BC1F21014041
:101E700001228A40000F0C2101401B480B5893435C
:101E80000B50704780B57146C90714D1411C0CD066
:101E90002949083140F24C220323DB43CB588342CB
:101EA00006D00C3A0C31002AF6D1244801F014F97E
:101EB00009680029F9D0FFF7D9FF80BC01BC86462C
:101EC0007046714672467346F4468EF30088744736
:101ED0001F21014001228A40000F0C2101400248CD
:101EE0000B5813430B5070470402004080B57146F5
:101EF000C90714D1411C0CD00F49083140F24C22C3
:101F00000323DB43CB58834206D00C3A0C31002A22
:101F1000F6D10A4801F0E0F809680029F9D0FFF786
:101F2000D7FF80BC01BC8646704671467246734638
:101F3000F4468EF30088744748480000CC4C0000FB
:101F4000F0B584B001273A04B04D2B6C13432B64D9
:101F50002B68484E68B1042213432B602B6D10226E
:101F6000134212D133465B1C0FD02C6D1442FAD0B1
:101F70000BE0012213432B602B6D134205D1334636
:101F80005B1C02D02C6D1442FAD03B4A8A183B4CA1
:101F90003B4B9A4255D801903E4BCB183A4C00200F
:101FA000A34200D307463C4B03269A42344600D353
:101FB0003C46009402259A4200D33D46A940C343C3
:101FC00007460290B01E0428039620D8ED48B0FBC7
:101FD000F6F04200022630465043304C0419304D92
:101FE000AC420CD8451A0C1A884200D825469D42AE
:101FF00005D20020002D2B460296039F04D0761CAC
:102000001E488642E7D302E003460296039F039EE2
:10201000761C212ED6D1780222494018009B9903C4
:10202000019A1143029CA21E0A430243ED4D2A6409
:10203000581C7843D349B1FBF0F0604340000D4E8B
:102040000EE00321C9436958FE34214204D00D49F2
:10205000084328640C4803E00C49084328640C48F2
:102060002A6D042102E0761C02D02A6D0A42FAD0C1
:1020700004B0F0BDFF60DBFF00CA91FE0202000069
:10208000000E27070EC20000006CDC020E440000A8
:102090000090D003009423FD00366E01002847FA1B
:1020A00000EA320600FEFFFFCE490A6802430A60DA
:1020B0007047C046F0B52D48036802221340846B78
:1020C00005210D0400212C4215D1A103284912D469
:1020D000A50B03262E40274DAD5D660A1F2737400E
:1020E0007E1C6E436400244D2540244C6C436118D3
:1020F000B1FBF6F18900224C2160856807242C4051
:10210000022C1AD0012C0ED148F200011D4C73B9DB
:1021100003681343036023680468944304608022C7
:10212000134208D109E0A10017A2515805E0226826
:1021300080231A4201D047F6005180690F220240E5
:10214000501CB1FBF0F07849086017494118174A54
:10215000B1FBF2F1164A1160F0BC02BC8E4671462A
:1021600072467346F4468EF30088744708020040B6
:10217000001BB70004480000FE030000C0C62D008D
:102180004C17002000110440001BB7000080000025
:10219000000000001027000000000000006CDC02BE
:1021A00000000000001BB70020A1070040420F0004
:1021B000E011002080B500F01BFC5B48006880BC8B
:1021C00002BC8E46714672467346F4468EF3008812
:1021D0007447C046C7480068012101404942694828
:1021E0000840714672467346F4468EF30088744781
:1021F000C0480068810348F20000084071467246FA
:102200007346F4468EF300887447C04600020040CF
:10221000810ACAB2002162B141091F230B409A40D2
:10222000000C0C210140CA48405806494158114051
:10223000D9400846714672467346F4468EF30088CC
:102240007447C0462002004010B501461F480818D8
:1022500003280ED8810001A251188F4600F006B85D
:1022600000F01CB800F01EB800F020B81848016853
:102270001FE04A0E07231A400020E2B1080D1F2478
:102280000440A240880E0C210140B2484058104939
:102290004018D94340581040E0400CE00C4800681A
:1022A000410806E00A480068010A02E008480068A0
:1022B000410A0120084010BC02BC8E46714672469D
:1022C0007346F4468EF300887447C046F0FFFF7FE4
:1022D0001802004080B500F08BFB134800681349DA
:1022E000096807220A40D04080BC02BC8E46714675
:1022F00072467346F4468EF30088744780B500F04A
:1023000077FB0948006809490968090907220A405A
:10231000D04080BC02BC8E46714672467346F4467D
:102320008EF300887447C0465417002034020040E2
:1023300010B513480168052002040020114215D190
:102340008803104812D48A0B032313400E4AD25C30
:102350004B0A1F241C40631C534349000B4A0A408C
:102360000B4951430818B0FBF3F0800010BC02BCCD
:102370008E46714672467346F4468EF30088744763
:1023800040020040001BB70004480000FE030000AC
:10239000C0C62D00124801680422914301605548CF
:1023A000016880229143016030BF704780B5FFF71C
:1023B000F1FF80BC01BC864670467146724673468A
:1023C000F4468EF3008874470548016804220A43E6
:1023D00002604848016880220A43026030BF7047AB
:1023E00010ED00E00002004080B5FFF7EDFF80BC7B
:1023F00001BC86467046714672467346F4468EF3BB
:1024000000887447F0B581B03A4D2E6D0321C94361
:10241000695840F200320A401F49884200D95AB137
:102420001E49884203D940F200139A4204D01C4945
:10243000884200D8084601462868042738432860A7
:102440002A6D1020024205D1624A521C02D02B6D27
:102450000342FAD02869072202432A61286A0F2220
:10246000904328622A6D0120024205D1C004FFF783
:1024700067FD04462E6D03E00020FFF761FD044672
:102480000220002100F00EF8F00602D42868B843BC
:102490002860204601B0F0BD0090D003006CDC0243
:1024A00000366E01F0B581B0124C266D226804250D
:1024B0002A43226010221640236D134205D1454B5A
:1024C0005B1C02D0276D1742FAD0226907231A43FA
:1024D0002261226A0F27BA430A4322622169994383
:1024E0000143216100F084FA16B92068A8432060F6
:1024F00001B0F0BD00020040F0B50023DC43830AC8
:10250000DDB2124B75B146091F273740BD4065400B
:10251000060C0C2737400E4EF659F61837692F4037
:1025200017433761450E07222A406AB1050D1F2661
:102530002E40B2406240800E0C24044005480059F1
:10254000C45814400C43C450F0BDC04610020040B3
:10255000F4470000E4470000B0B57346DB0714D130
:10256000431C0CD00F4B083340F24C240325ED43A1
:102570005D59854206D00C3C0C33002CF6D10A483C
:1025800000F0AAFD1B68002BF9D0FFF7B5FFB0BC27
:1025900001BC86467046714672467346F4468EF319
:1025A0000088744748480000CC4C000010B5084A29
:1025B000116801400123814207D0064C0021641CB0
:1025C00004D0116801408142F8D11946084610BD77
:1025D00050020040FF60DBFFFEE7F0B500231C4621
:1025E0000125A5400D4207D015469D4003269E407B
:1025F0000768B7432F4307609B1C641C102CEFD166
:10260000F0BD0000F0B581B001273C07FDF7C0FE2A
:102610006B4D6C4E2042284600D0304600903F045F
:10262000FDF7B6FE204204D0009A70683842FCD014
:1026300003E0009A68683842FCD0D06B0421014363
:10264000D16301B0F0BDC046F0B581B004460125AC
:102650002E07FDF79DFE304201D05A4900E058494F
:10266000486928400090E0618B6907273B40E360A0
:102670000B691E0D0F231E40374806600E69360C8D
:102680001E40364806600E69360B2E403448066000
:102690000D692D0A1D40334805600D692D0903267B
:1026A0003540314805600D691D4030480560CD68F2
:1026B0002D0D35402E4E3560CD68280C18402D4D1F
:1026C0002860C868000B38402B4A1060C868000AB0
:1026D00018402A4A1060C86800093840284F3860FE
:1026E000C8681840274908601B4800680A235843F7
:1026F0001A4A1268101840F2D072801820601848E8
:1027000000685843174A12688018606016480068CD
:102710005843164A12688018A060306858432A68E7
:1027200085182561009840B9152D04D30220206238
:10273000143D256101E0012020620F4800685843E4
:102740000E4A126880183A685A4309685118606145
:10275000A16101B0F0BDC046E0280020F8280020AB
:10276000D8280020F0280020CC280020E4280020D1
:10277000D0280020E8280020D4280020EC280020C1
:10278000DC280020F4280020B0B50446012005070D
:10279000FDF7FEFD284201D00A4800E008480A493A
:1027A00001600268012A03D0016001680129FCD19F
:1027B0002CB12046B0BC02BC8E4600F007B8B0BDBC
:1027C00000100440001004505713EBA5F0B585B07D
:1027D0000446012001900507474E301F0490474FE3
:1027E000381F0090FDF7D4FD0395284201D00098D2
:1027F00004902046002C7CD001980504FDF7C8FD0C
:102800000399084204D0049B38682842FCD003E0B6
:10281000049B30682842FCD0E169586919B10199DC
:102820000843586108E0019988435861206A0228EA
:1028300002D1206914302061E06804939861216915
:102840000A200294B1FBF0F213054243891A0904ED
:1028500019436269B2FBF0F31C030C434343D11AE2
:1028600009022143029A9269B2FBF0F304465C43E9
:10287000121B0A43190111430191029C2168204A4D
:102880008918B1FBF0F203465343C91A0904120533
:102890000A436168B1FBF0F31C0314434343C91AB4
:1028A00009022143029A9268B2FBF0F35843101ACE
:1028B00008431C010443FDF76BFD0399084203D054
:1028C00038682842FCD002E030682842FCD00498E6
:1028D00004610446FDF75CFD0399084204D00199A8
:1028E00038682842FCD003E0019930682842FCD0C7
:1028F000E16005B0F0BDC04604100440041004506F
:1029000030F8FFFF80B5964859210160162101601B
:102910008821016001680029F6D0DB21C943044AFF
:1029200042500021016000F07FF8FDF755FCFEE702
:10293000A55A00008A48002101607046714672461F
:102940007346F4468EF300887447C04610B5010EF6
:10295000094A8B58FF242406A04301248440A34342
:102960008B5010BC01BC8646704671467246734659
:10297000F4468EF3008874470800004080B5714625
:10298000C90711D1411C09D00E4940F24C220B68F5
:10299000834206D00C3A0C31002AF8D10A4800F0E4
:1029A0009BFB89680029F9D00AF086FB80BC01BC3A
:1029B00086467046714672467346F4468EF300882A
:1029C0007447C04648480000CC4C00006448592178
:1029D0000160162101608821016001680029F6D09C
:1029E0007046714672467346F4468EF3008874470B
:1029F00080B50AF05DFB074908600AF039FB06491B
:102A00000860064940180649B0FBF1F00549086026
:102A100080BDC0464C1700205417002020A107009D
:102A200040420F00E011002070B53E483E49016071
:102A3000D021032343501F22D4433C4D2E46264031
:102A4000D42286503A4EAD196D1E25401D43D82321
:102A5000C55004244450374C8450374CC45005248E
:102A60004450364D8550364DC55006254550354DA0
:102A70008550354DC55007254550210781503349B4
:102A8000C150C82201218150826808239A43826084
:102A90002F4A42602F480246C3322F4B1A605860BB
:102AA0000020C2439A60DA602C4B1A605A60941E70
:102AB0009C60DA601A615A619A611A620C22521E95
:102AC0000C4694405D6A25435D62022AF7D80A04E9
:102AD000996A914200D170BD214959230B60162398
:102AE0000B6088230B600B68002BF6D01D4B112464
:102AF0001C601D4C5C60D8600120186118690028BA
:102B0000FCD19868401C0BD19A602120D86001202C
:102B1000186118690028FCD1F720C04301220A502F
:102B2000FEE7C04608ED00E00000000000D0000015
:102B30000010000000000110E1FF0710007E80007F
:102B4000E37F800000400030E17F0130E1FFFF5F64
:102B50000000FA05FCFEFFFF80E300E000F0024009
:102B60000001004000C000400008200010B50446ED
:102B700000201B498C4209DC1D498C4213D01D49A1
:102B80008C4212D01C498C420BD021E015498C425A
:102B900005D015498C4204D014498C4218D11748ED
:102BA00004E0174802E00D4800E016480AF074FA05
:102BB00002280AD140F2001004430E48844208D192
:102BC00010BC01BC86460AF06BBA80000EA1085802
:102BD00010BD10BC01BC86460AF066BA0200805ED9
:102BE000FF10054000110540001005500011055070
:102BF0000000054000010540001005400500405F51
:102C00000400005F0300C05E001BB70000800000EE
:102C1000000000000000000000000000102700007D
:102C200000000000001BB7000020EFF3058171B128
:102C3000324A11684B1C0AD048025C4B185810608D
:102C40000C204843584A131810589860481C714685
:102C500072467346F4468EF30088744710B5411EE1
:102C6000EFF305820020072910D87AB10C224A43DD
:102C70004D4B9A189368083243B100201060480207
:102C80001E4A1368494C23501160012010BC02BC3D
:102C90008E46714672467346F4468EF3008874473A
:102CA000B0B50020EFF30581F1B1404C01203E4961
:102CB00040F200220023A5180D604C608B6020605C
:102CC0000C31401C09282C46F4D1D84340F6006151
:102CD000364A50500948036082F30B8882F3098812
:102CE000022080F314880120B0BC02BC8E467146DD
:102CF00072467346F4468EF30088744750170020DE
:102D000001460020EFF30582B2B10223EFF31482F3
:102D10001A40491E07290FD872B10C224A43224992
:102D20008A1811460831936833B1506880F30B88D4
:102D3000086880F309880120714672467346F4469C
:102D40008EF300887447C046B0B501460020EFF30B
:102D50000582F2B10223EFF314821A40491E0729BB
:102D600017D8B2B10C224A430F4B9D18294608319F
:102D7000AC6874B1EFF309846D68AC4209D39A581A
:102D8000944206D80C60094880F30B8880F30988C8
:102D90000120B0BC02BC8E46714672467346F446B2
:102DA0008EF300887447C046D417002038180020DE
:102DB00000200870012070471D2070471520C04377
:102DC0007047002070471046704701207047FDF79C
:102DD000E7BA1520C04370471820C243002001B94C
:102DE000104670471520C04370470168896A08473C
:102DF0000020704701680B69002101221847016813
:102E00008969084703681B691847704701680B699F
:102E100000210A4618471520C0437047704700003C
:102E200070B5054600240F281ADCA80014490C5878
:102E30000E18022D14DC601C12D1284600F028F870
:102E4000044660B9284600F025F8044638B90D4814
:102E50000078BFF35F8F0C4C0121084202D0346030
:102E6000204670BD074800F01BF80028F7D007483F
:102E70000830054C2060034800F03CF8EFE7C046FE
:102E800058170020382800203C28002088470000E0
:102E900000207047002070470120704711207047C4
:102EA00080B501460378032213400020012B04D093
:102EB0000B781A4012B1012A05D180BD02200343CC
:102EC0000B70012080BD02A01449094A00F07AFC71
:102ED0002867756172642026204358415F47554139
:102EE00052445F4D41534B29203D3D2030000000AE
:102EF000E405000080B5017803220A40022A05D1CA
:102F0000FC22114001220A43027080BD024803499D
:102F1000034A00F057FCC046704C0000A74C00006C
:102F2000ED05000010B5074801687622064B10C970
:102F300010C3521EFBD10449016010BC01BC86467F
:102F400000F052BD08ED00E000100020F0B583B0A5
:102F500003460020002B59D0002957D0029159690F
:102F60000D46463D882D51D803250D400020461BB7
:102F70006E41C8274F40019217430125002F00954D
:102F800000D13D462E4030257543214E75191E69EE
:102F9000B600AF599D6840F610666E435D683C24EC
:102FA0006C431D682C19A419DB681A4E7343E3188F
:102FB000DB19194C1B19CE290CD1019A1AB9174CDF
:102FC000A342019A22D8012A07D1154CA342019AA3
:102FD0001CD802E04729019A15DB1120C043471C89
:102FE000C82900DC384602B1384640F26D144C4323
:102FF0004A1ED517AD0F52199210A2181018094A7F
:10300000801846439B1902980360009803B0F0BDF6
:10301000944A00008051010080AEFEFF7F22310003
:10302000FFD02F00329CFFFF0120EFF31081014001
:103030000020401A4841704780B500F099FA0648D0
:1030400001684A1C02D0491C016080BD03A010A188
:10305000402200F0B7FBC046442800206372697428
:103060006963616C5F73656374696F6E5F726565D8
:103070006E7472616E63795F636F756E74657220D2
:103080003C2055494E5433325F4D415800000000FA
:103090002E5C6D6265642D6F735C706C6174666F1D
:1030A000726D5C6D6265645F637269746963616CA3
:1030B0002E6300000448016811B1491E016000D070
:1030C000704700F063BAC046442800200120EFF3A7
:1030D000058101B90846704783B070B581B0754667
:1030E000044605A80EC001200C49D1E84F2FC1E8C5
:1030F000430FFF2002420FD10948002631462A46DD
:1031000000F080FA07A03146324600F0F7FC05A92E
:103110000091204600F02CFC00F046FC50280020D6
:103120000001FF80466174616C2052756E2D7469D8
:103130006D65206572726F720000000080B500B985
:10314000FEE700F04BFB0000F0B58FB072460D4675
:103150000746D00709D10020C64378684168A942D4
:1031600042D880684018A8423ED9FFF765FF09950C
:1031700001200B900346029000260C9698480068A8
:103180000A90B8680169426989180D910068801831
:103190000E900197934C1C4309A8A04704960395F1
:1031A00005960696B8680169426989180791806892
:1031B0008018089003A8A0470746099502980B902D
:1031C0000C96874800680A900198806801694269F6
:1031D00089180D91406880180E9009A8A047F64301
:1031E00007B93E46FFF766FF30460FB0F0BC02BCA1
:1031F0008E46714672467346F4468EF300887447D5
:103200000020714672467346F4468EF30088744778
:10321000FF20714672467346F4468EF30088744769
:103220007146CA07011D02B101460868006871466F
:1032300072467346F4468EF30088744710B57346A1
:1032400002460020C043DB0715D153685A689C68CA
:10325000A2188A4226D91A69521E002A22DBDB688C
:10326000D4001B191C688C421BD9C4001B19521EA8
:10327000002AF7DA16E013685A689C68A2188A4296
:1032800010D91A69521E002A0CDBDB68D4001B1906
:103290001C688C4205D9C4001B19521E002AF7DA9B
:1032A00000E0586810BC02BC8E46714672467346F8
:1032B000F4468EF3008874477146CA07011D02B1B7
:1032C000014608688068714672467346F4468EF37C
:1032D000008874477146CA07011D02B1014608689B
:1032E0004068714672467346F4468EF30088744710
:1032F00080B500F079F8002080BC02BC8E46714693
:1033000072467346F4468EF300887447F0B58FB06A
:1033100074460D46E10713D1E9184F1E0021CE4334
:10332000AF4250D344686168A9424CD8A46864187D
:10333000AC4248D9AF4203D0B94244D8BC4242D98A
:10334000019200930746FFF777FE0995022002904D
:103350000B9000260C96224800680A90B868016914
:10336000426989180D91006880180E9001201D4C4B
:10337000044309A8A047009804900395019805907C
:103380000696B8684169026952180792C0684018E9
:10339000089003A8A0470190099502980B900C96FD
:1033A0000F4800680A90B8680169426989180D9150
:1033B000406880180E9009A8A0470198F64300B90C
:1033C0000646FFF777FE30460FB0F0BC02BC8E46D3
:1033D000714672467346F4468EF300887447C046C1
:1033E000541700209C1700200249034A034B0AC0CF
:1033F0000260704720480000084800003448000080
:10340000004870477C4D0000B0B50A4601880CB2F8
:10341000A3B254498B4211D00272417A032902D3DC
:10342000CD1E022D0BD20321042402B1214641728C
:1034300018B2B0BC04BC964600F03EBBB0BD062935
:10344000F6D10621002AF3D140F2C03040F2C0315B
:103450003C31A2000A40A108014044480843012130
:1034600081500621E4E7C046B0B50D460446018010
:10347000481C0AD00021284600F0F6FA40F200204D
:103480002081E8B2012181406160B0BD002200F0DE
:1034900001B8000070B515460E460446FFF7E4FF7C
:1034A000701C00D170BD2F49208888421BD002B209
:1034B0000121002D084600D1284640F2C03340F2D9
:1034C000C0353C3596002E4092081A40274B1343D6
:1034D00098512046FFF798FF0021204670BC04BC9D
:1034E000964600F005B8F648F649282200F06AF939
:1034F00010B5028813B29AB2ED4CA2420BD0032948
:103500000AD3CC1E022C0DD2032927D140F2003160
:10351000018103211CE010BD047A03210423B4B10E
:10352000194614E0062912D106214172007A78B9B1
:1035300040F2C03040F2C0313C319C000C40990850
:103540000140DE48084301210151062100E041729B
:1035500010B210BC04BC964600F0AEBA024901811C
:103560000421F5E7FFFF00000104000000480050BF
:10357000EFF31080EFF3108172B60E490A7822B98A
:1035800001220A7082430C480270704780B5012006
:10359000EFF31081014207D0064800210170064870
:1035A000007800B162B680BD04A00BA1362200F005
:1035B00009F9C046352900204028002021617265A4
:1035C0005F696E74657272757074735F656E616247
:1035D0006C656428290000002E5C6D6265642D6FA7
:1035E000735C68616C5C6D6265645F637269746969
:1035F00063616C5F73656374696F6E5F6170692E80
:1036000063000000F0B58BB015460C46064601A8D5
:103610002821FDF7B6F9FFF70FFD15490868421C90
:103620000A60002E00DB134E68B91348066045603F
:1036300084600C3001A98CC98CC08CC98CC00094EA
:103640009CC99CC0009C0D480660456084600C309D
:1036500001A91CC91CC01CC91CC03CC93CC00848ED
:10366000016809B105488847FFF724FD0BB0F0BD9C
:10367000482800200101FF80982800200029002010
:103680004C280020F0B585B0044640683821415CE4
:1036900011B93A21405C08B105B0F0BD206800685E
:1036A00080472068C06980470568002D4ED01F21E3
:1036B000CAB20126334693409D4205D0491E0027D9
:1036C000FF221142F4D100E00F4640680290001F33
:1036D00003901D283FD26068002101910160416084
:1036E000206840688047049464683B2167543A220C
:1036F000019FA754A762E7622062A5603046394661
:10370000029AFCF773FE411E0720039A9040E16085
:103710002061134A39463B46FCF789FE2818794157
:10372000401EB9412A463B46FCF799FEA061E16183
:10373000276367632687049C204600F01FFD204610
:1037400005B0F0BC02BC8E4600F00ABC0548064934
:103750002D2200F037F8034803493B2200F032F8ED
:1037600040420F00584B00005A4B000080B51448EF
:10377000016881F38888406801218843F0B4444699
:103780004D4656465F46F0B4012188430146024645
:10379000034604460546064607468046814682465D
:1037A0008346844680F300888447F0BCA046A9463F
:1037B000B246BB46F0BC3F20000600F055FEFAE7DB
:1037C0000000011080B582B00B46014668460260D9
:1037D0000148002200F078F84401FF80F0B585B080
:1037E000FFF72AFC02A80A21FFF750FE0027314EFE
:1037F000314D53E000B240F2C0323C3281000192C0
:103800001140800840F2C03210402C4C204301226D
:1038100000924250304600F035FE02A8008824494C
:10382000884240D000B28100019A1140800840F2E5
:10383000C0321040204300224250304600F022FEA9
:103840007F1C042F2AD3002402A80088184FB842F6
:1038500029D000B28100019F3940800840F2C03277
:103860001040164A1043009A4250284600F00AFEC3
:1038700002A800880E49884215D000B28100394064
:10388000800840F2C03210400C4A104300274750D5
:10389000284600F0F7FD641C042CD5D302A800884C
:1038A000034CA042A6D1064806492822FFF78AFF0A
:1038B000FFFF0000F0490200801A06000048005097
:1038C000044B00001C4B0000F0B581B0764600931D
:1038D0000D460121094BD3E84F7FC3E8441FFF2168
:1038E0000F4209D1069F11463246FFF78BFE28464C
:1038F00000993A4600F002F900F056F850280020EE
:1039000083B080B581B003AF0EC703A9009100F06A
:103910002FF801B080BC01BC03B00047B0B582B045
:1039200004460220002521462A4600F0BAFDFFF792
:1039300083FB11E0E8B20D2806D001A90D20087024
:103940000220012200F0ADFD02200122214600F0FC
:10395000A8FD601C2578044620780A28EAD00028B3
:10396000F2D102B0B0BC01BC8646FFF7A3BB000099
:1039700010B5A2B00B46024601A88421FCF7F0FD69
:103980000446842805D301A87F3005A10522FCF751
:1039900099FF012C02DB01A8FFF7C0FF22B010BD88
:1039A0002E2E2E0A0000000080B50D480122D0E81E
:1039B0004F1FC0E8432F002BF8D1C80705D0FFF7F1
:1039C0003BFBBFF34F8F20BFFDE7FFF77FFB28B91D
:1039D000FFF72AFB10B10120FFF7B0FBFFF7FEFE57
:1039E000FC28002070470000F0B581B01B4801782A
:1039F00091BB012404701A4F59203860162038609A
:103A00008820386038680028F6D00420FEF74CFB88
:103A10002046FEF749FB08252846FEF745FB02260F
:103A20003046FEF741FBA004FEF73EFB1020FEF7F8
:103A3000BDFD2046FEF7BAFD2846FEF7B7FD30462D
:103A4000FEF7B4FD4020FEF7B1FD0648FEF7DAFCB4
:103A5000FEF7CEFF0020386001B0F0BD3429002011
:103A6000000100400090D00309F04ABBB0B5421CF1
:103A70001BD042087C231340420978241440E218EA
:103A80000C4BD45880001C2505400F20A8408443CF
:103A90000C43D450B0BC01BC864670467146724699
:103AA0007346F4468EF30088744712481249542234
:103AB000FFF788FE3000004080B5421C12D0C91EBE
:103AC000CAB2032A0DD8C3B201219940800840F23E
:103AD000C03303400648184380BC08BC9E46FEF72E
:103AE0007CBD80BD034804492622FFF76BFEC0461B
:103AF00000400050094B00000B4D0000F0B581B0B4
:103B000000920D460646032040073E4C21680A46B7
:103B100002404F42824200D08FB2080CC3B23A48F2
:103B20003A46FFF7EDFE39483818132845D881008A
:103B300001A251188F46C04600F026B800F027B801
:103B400000F028B800F029B800F02AB800F02BB82F
:103B500000F02CB800F02DB800F02FB800F02DB810
:103B600000F02BB800F029B800F027B800F025B815
:103B700000F023B800F021B800F01FB800F01DB825
:103B800000F01BB800F03AB8A168474813E0A168FC
:103B900041A010E0A1683CA00DE0A16835A00AE0BA
:103BA000A1682FA007E0A16824A004E0A16827A0D5
:103BB00001E0A1681BA0FFF7A3FE3046FFF7AEFEB1
:103BC00061683A48FFF79CFE4DB139A0FFF7A6FEA9
:103BD0002846FFF7A3FE38A00099FFF791FEA168E1
:103BE0003648FFF78DFE21683548FFF789FE3548D6
:103BF00001B0F0BC02BC8E46FFF782BE04A0FFF706
:103C00007FFEDAE700290020A94B0000CFFEFFFF6E
:103C1000417373657274696F6E206661696C656467
:103C20003A2000004D657373616765517565756570
:103C30003A20307825582C200000000054696D652A
:103C4000723A20307825582C200000004576656EA9
:103C500074466C6167733A20307825582C20000038
:103C60004D656D6F7279506F6F6C3A2030782558C2
:103C70002C20000053656D6170686F72653A2030CA
:103C80007825582C200000004D757465783A203056
:103C90007825582C200000005468726561643A2031
:103CA000307825582C200000944B0000604C000018
:103CB0000A46696C653A20002B2564004D4C0000D3
:103CC000FA4B00007A4B000080B59F4809F0F8F9E4
:103CD00080BC01BC86467046714672467346F44607
:103CE0008EF300887447C04610B5964800680221DC
:103CF000084202D1944809F0E7F918480068012108
:103D0000084207D100242046FEF73EFD204621460A
:103D100009F00AFA10BC01BC86467046714672462C
:103D20007346F4468EF300887447C04680B58548D4
:103D300000680221084202D1834809F0C5F907480A
:103D400001680120084080BC02BC8E467146724664
:103D50007346F4468EF300887447C0460010044052
:103D6000F0B597B0774800680221084202D1764842
:103D700009F0AAF90320C043744D2858012738429E
:103D800001D109F0C5F93E043C073C48017891BBDC
:103D90000194077064201190002410940F9706205E
:103DA00012900E940D940C940CA835492246FFF7FE
:103DB000CDF80028214656D0664CFCF7E9FA019967
:103DC000084203D020683042FCD002E0286830422C
:103DD000FCD0FEF717FCFCF7DBFA0199084203D090
:103DE00020683042FCD002E028683042FCD0E86B0A
:103DF00057490860019CFCF7CBFA204204D0554893
:103E000001683142FCD002E028683042FCD003A8AF
:103E1000FEF71AFC05980F900698129007980E90DE
:103E20001849039A511811910499491E10910A9941
:103E300021B90B99022901D10C300E9008980D90F0
:103E400009980C900CA802A900242246FFF77EF8DE
:103E50000028214607D03E48006802990818084902
:103E60000968441A0021204617B0F0BC04BC9646ED
:103E700072467346F4468EF3008874473C2900204E
:103E80003829002094F8FFFFF0B581B005462D4891
:103E900000680221084202D12B4809F015F90320DD
:103EA0000090C043294F38580124204201D109F025
:103EB0002FF92748056025042407264EFCF768FAE9
:103EC000204203D030682842FCD002E03868284203
:103ED000FCD0FEF797FBFCF75BFA204203D030687A
:103EE0002842FCD002E038682842FCD0184800681C
:103EF000F863FCF74DFA204203D030682842FCD02A
:103F000002E038682842FCD01348FEF75FFC0D48F9
:103F1000416948F200020098014200D00F4AD94995
:103F2000B1FBF2F1484300F0ADFA01B0F0BC01BCC6
:103F300086467046714672467346F4468EF3008894
:103F40007447C0460802004001008072041004401B
:103F5000402900200410045064470000102700008E
:103F6000F0B583B0044646683A20305C10B9392079
:103F7000305C08B103B0F0BD204600F0FFF8626885
:103F80005168A1B3156B0B68012700200195AB4266
:103F90003D4600D905460292526B4968914200D9CC
:103FA0000746914200D03D46002D63D1002701987D
:103FB0001B1A01977F410298806901250093834273
:103FC000284600D801987F1E9141029AD2699142F9
:103FD00000D8019D914200D02846029A156978BB0D
:103FE000134692682A4882420DD1009824E0306A34
:103FF000F1683269101808402168096903B0F0BC03
:1040000004BC964608473B201B5C4BB100981A46FF
:10401000FCF7ECF900231F4A801859411C4A09E0BB
:10402000002700983B46FCF702FA1A4A80187941AB
:10403000174A3B46FCF713FA854200D30546029A1D
:10404000106A4019D5680540306A854219D0206849
:10405000016928468847206840688047316A8D4258
:1040600002D9A84203D305E0A84200D282E78842E1
:1040700000D37FE72068406903B0F0BC02BC8E46E5
:10408000004705A00D4940F20812FFF79BFBC04610
:1040900040420F003F420F006D617463685F7469B6
:1040A000636B20213D2071756575652D3E746963D4
:1040B0006B5F6C6173745F72656164005A4B0000E2
:1040C000F0B581B00546FEF7B7FF2868C0688047A5
:1040D00068683A21415C79BB39210127475441681E
:1040E000393021B30097284600F048F82C4668681C
:1040F000026B41680D68002395423A4600D81A4683
:10410000466B4D68B54200D81F46B54200D03A46CE
:10411000002A25460AD1CA68426003681BB1886834
:10412000984768684268002A009FDCD13930002136
:1041300001702846FFF714FF01B0F0BC01BC8646B1
:10414000FEF7B8BF80B500F001F880BDB0B50446F9
:10415000FFF798FAFEF770FF204600F00FF860684E
:10416000046B456BFEF7A6FF20462946B0BD000054
:1041700047480121016000F045B9C046F0B585B05F
:10418000044646683A20305C002878D120684068B0
:1041900080476168096A884271D0316A3062401A8A
:1041A000B168F468044000257948814261D00491E7
:1041B000774A0027204639463B46FCF738F93B2230
:1041C000B55C002D039026D001970F462A46FCF7D8
:1041D0001DF9044602912A46FCF708F9039A101AC1
:1041E000019B1A465A41521E8F41B16A0918B162A9
:1041F000F06A7841F0620122049DA9421F4600D373
:104200003A4600B13A4633462833002A029D30D15F
:104210000022049F24E000250F46049A2B46FCF759
:104220001EF904460291049A2B46FCF700F9039A02
:10423000101A2A466A41521E8F41B16A4118B16272
:10424000F06A7841049FF0620122B94200D32A4605
:1042500000B12A4633462833002A029D09D10022A4
:10426000C91B196011465141491E90415860641C98
:104270005541306B00193063706B6841706305B055
:10428000F0BDC04640420F00014801210160704767
:10429000080005403A4801210160BFF34F8FBFF38A
:1042A0006F8F70470248012101606E4801607047BE
:1042B00004E200E080B5324801210160BFF34F8F76
:1042C000BFF36F8F304808F0FBFE58480021018093
:1042D00080BDC04600487047A84D0000B0B52748D3
:1042E000018839B1264801210160BFF34F8FBFF328
:1042F0006F8FB0BD01250580224808F0F9FE224CE1
:104300000022204640F2002108F0EAFE204608F094
:10431000DBFE1E4C2046FEF729FC1D4AB0FBF2F3E3
:10432000591E802920D25A43801A22D10320C00668
:10433000014321604A48606030480068C021304A2B
:1043400042500F480560BFF34F8FBFF36F8F680770
:10435000216801432160A8072168014321606806A4
:1043600021680142FBD0B0BD0AA019496922FFF7BC
:1043700029FA18A016496A22FFF724FA44290020D6
:1043800084E100E0020000040200805E00000540BD
:1043900040420F00287072657363616C655F7469D9
:1043A0006D657220213D202875696E7433325F740B
:1043B00029202D3129202626207072657363616CB7
:1043C000655F74696D6572203C3D203132370000B5
:1043D000424D000028636C6B5F74696D6572202527
:1043E000204E555F544D52434C4B5F5045525F53E6
:1043F000454329203D3D20300000000008ED00E04D
:10440000714100000248016809B10248084770473D
:10441000981700207C4D000080B50448008808B93A
:10442000FFF75CFF0248006880BDC04644290020B9
:104430000C000540084A01215160084B1960022315
:10444000022800D81846064B984200D31846106040
:10445000044801607047C0460400054084E200E063
:10446000FFFFFF0004E100E080B5054900F092F88D
:10447000FCF7D1FA80BC02BC8E4600F003B8C046FF
:104480000024744970B50446FEF7BAFF0546FFF7ED
:1044900059FE06462846FFF755FE801BA042F9D379
:1044A00070BD70B514460D46FEF7BAFC092640B142
:1044B0000168CB68294622469847002800DB70BD7A
:1044C0004642FBF769FF06600020C04370BDF0B4B0
:1044D000040C8BB2264682B25E43104658430D0C44
:1044E000370C360400218019164679416E43370C8B
:1044F00036048019264679416E438919F0BC70470D
:104500004900CA020243100000D004204A0D01D025
:1045100001221043044A490D914201D1022108436E
:10452000012800D105207047FF07000030380A2815
:1045300001D20120704700207047000010B500290B
:104540000AD00878002807D005487844FCF71CFA00
:10455000002801D0002010BD0248784410BD0000A2
:10456000860800007E08000010B500290AD00878EF
:10457000002807D005487844FCF706FA002801D047
:10458000002010BD0248784410BD00006A090000F8
:104590006209000070B5420064414B005C41120E9C
:1045A00039D01B0E38D0FF2A3CD0FF2B3AD0D2187E
:1045B0007F3A40024902400A490A4518ED010600C7
:1045C0004E43000A090A48430104731A4019190CA2
:1045D0004318990F04D05B08012149075B1A521C4C
:1045E000D80904D3401CF50301D19D0607D0FF2A4A
:1045F00008D2D50506D0E4072043401970BD012537
:10460000A843F4E7002A01DCE00770BD2402FF2084
:104610002043C00570BD1B0EFF2A03D0FF2B01D025
:10462000E00770BDFF2636064500B54206D84D00AE
:10463000B54203D8D218FF2A00D0E7E7004870BD82
:104640000000C07F03B402487844844603BC60473E
:10465000DDCAFFFF03B402487844844603BC6047C8
:1046600045CDFFFF303132333435363738394142AA
:1046700043444546403058003031323334353637C4
:104680003839616263646566403078000400000870
:104690000000000000000002000100001000000007
:1046A000000000000000000030313233343536376E
:1046B0003839616263646566787000303132333452
:1046C000353637383941424344454658500000009A
:1046D00002400000000000A00000000005400000B3
:1046E000000000C8000000000C4000000000409CDA
:1046F00000000000194000000020BCBE00000000C7
:1047000034400000BFC91B8E00000004B54000000B
:10471000504BCFD06607E2CF010000006C41000093
:104720003E8251AADFEEA73401000000D94200000A
:10473000DCB5A0E23A301F97FFFFFFFFB445000051
:10474000FD25A0C8E9A3C14FFFFFFFFFFF3F000009
:104750000000008000000000FF3F0000000000801B
:1047600000000000D0070000010000000100000070
:104770000600000000000000000000000000000033
:104780000100000000000000000000000000000028
:104790001D2E0000CF2D0000B12D0000C72D000000
:1047A000B92D0000C32D0000F12D0000CB2D00001D
:1047B000F52D00000D2E0000BD2D0000172E00006D
:1047C000052E0000FF2D0000EB2D0000D92D00006C
:1047D000992E0000D32D0000E52D00009D2E000035
:1047E0000B2E000000000000040000000800000084
:1047F0000C000000000000000400000008000000A1
:104800001000000001020204D7000000890100002E
:104810006F0200001903000064050000E41100208D
:10482000040000000000000000000100F44A000045
:10483000010000000400000000000110000007005B
:10484000FC4A00000100000004000000903C8002CF
:10485000000200000600000006FF430700200000E1
:10486000FFFFFFFFFFFFFFFF00400000030000000D
:1048700003000000000001001D0000000100000016
:104880000000000107000000070000000000020017
:104890000C0000000C00000000000400FFFFFFFF00
:1048A00001008072000000001C0000041CFE034098
:1048B000080000000700000407000040200000007E
:1048C000FFFFFFFFFFFFFFFF400000000C0000089C
:1048D0000C000080800000001D0000041D00007717
:1048E000000100001A0000049A3C804200200000F1
:1048F000040000040400005F000002000500000442
:104900000500405F00000200100000081000008059
:1049100000000001110000081100008000000002EA
:1049200012000008120000800000000413000008BC
:1049300013000080000000080D0000040D00406618
:10494000010000000E0000040E006066020000007E
:104950000F0000040E00606604000000060000085E
:104960000600C0A608000000FFFFFFFFFFFFFFFFDB
:1049700010000000070000080700E0A6200000006B
:1049800010000004103D80570000010011000004D9
:10499000913DA0570000020012000004123C8C77E9
:1049A0000000040013000004933CAC7700000800F2
:1049B00014000004143DCC77000010001500000422
:1049C000953DEC770000200008000004080000403E
:1049D000010000000900000409000040020000007E
:1049E0000A0000040A000040040000000000000863
:1049F00000FC07B6000001000100000801FD27B619
:104A0000000002000200000802FE47B60000040099
:104A10001800000418000040010000001600000803
:104A20001600008000000100170000081700008039
:104A3000000002001A0000081A00008000001000A8
:104A40001B0000081B00008000002000170000046D
:104A5000177F345200008000FFFFFFFFFFFFFFFFC2
:104A6000000000011F000004190000800000000287
:104A70001B0000049B3C804201000000080000086D
:104A80000800008000000100090000080900008003
:104A9000000002000000000080DE280080C84D00F9
:104AA00000A7760000349E008012C700809FEE00B1
:104AB000007E1701805C400180E9670100C8900119
:104AC0000055B8010000000080DE2800001A4F00E9
:104AD00080F8770080859F000064C80000F1EF0037
:104AE00080CF180100AE4101003B6901801992019D
:104AF00080A6B901000000000008000000000110BD
:104B0000000800006F626A2D3E70696E20213D2012
:104B10002850696E4E616D65294E43002E2F6D62DF
:104B200065642D6F732F746172676574732F5441C0
:104B3000524745545F4E55564F544F4E2F54415295
:104B40004745545F4D323335312F6770696F5F6F62
:104B5000626A6563742E680030002E5C6D62656465
:104B60002D6F735C68616C5C6D6265645F74696312
:104B70006B65725F6170692E63000A2D2D204D6296
:104B800065644F53204572726F7220496E666F20C4
:104B90002D2D0A004B65726E656C204572726F7226
:104BA0003A20307825582C20000A0A2B2B204D6201
:104BB00065644F53204572726F7220496E666F2094
:104BC0002B2B0A4572726F72205374617475733A9D
:104BD000203078255820436F64653A202564204DA5
:104BE0006F64756C653A2025640A4572726F722095
:104BF0004D6573736167653A20000A466F72206DD8
:104C00006F726520696E666F2C2076697369743ADD
:104C10002068747470733A2F2F6D6265642E636F11
:104C20006D2F732F6572726F723F6572726F723D76
:104C3000307825303858267467743D4E554D414BB9
:104C400045525F50464D5F4D32333531000A457253
:104C5000726F722056616C75653A20307825580065
:104C60000A4C6F636174696F6E3A20307825580082
:104C70002867756172642026204358415F4755417B
:104C800052445F4D41534B29203D3D204358415FE5
:104C900047554152445F494E49545F494E5F505217
:104CA0004F4752455353002E5C6D6265642D6F7300
:104CB0005C706C6174666F726D5C6D6265645F726E
:104CC000657461726765742E637070004E6F6E2D2F
:104CD00073656375726520646F6D61696E207472AF
:104CE00069657320746F20636F6E74726F6C2073CC
:104CF0006563757265206F7220756E646566696E96
:104D00006564206D6F64756C652E002E5C6D626548
:104D1000642D6F735C746172676574735C54415287
:104D20004745545F4E55564F544F4E5C5441524781
:104D300045545F4D323335315C70696E6D61702E54
:104D400063002E5C6D6265642D6F735C74617267C5
:104D50006574735C5441524745545F4E55564F54E9
:104D60004F4E5C5441524745545F4D323335315CB0
:104D700075735F7469636B65722E6300844D000008
:104D800058280020DD420000194400009542000030
:104D90008942000035440000A5420000B5420000F1
:104DA000D54200000000000040420F001800000043
:104DB000FC4E0000E0110020D8050000D01D0000CE
:104DC000DC510000B8170020901100001C02000008
:104DD0001001000043000000F8FFFFFF00404040CA
:104DE00040404040404041414141414040404040BE
:104DF000404040404040404040404040400502026A
:104E00000202020202020202020202020220202028
:104E10002020202020202002020202020202909084
:104E20009090909010101010101010101010101082
:104E300010101010101010100202020202028888D6
:104E400088888888080808080808080808080808E2
:104E500008080808080808080202020240000000CA
:104E60000000000000000000000000000000000042
:104E70000000000000000000000000000000000032
:104E80000000000000000000000000000000000022
:104E90000000000000000000000000000000000012
:104EA0000000000000000000000000000000000002
:104EB00000000000000000000000000000000000F2
:104EC00000000000000000000000000000000000E2
:104ED00000000000000000000000000000000000D2
:104EE0001C00000043000000F8FFFFFF0C00000062
:104EF0000E0000000F0000002E000000101D30000A
:104F0000000085B00A460346039002A80170019292
:104F10000093FFE74CF2C000C4F21B100B680121A4
:104F2000084201D0FFE7F514320014300C0168404C
:104F300022114301604CF20C10100B22210160037E
:104F4000984CF204010E501501086002A800780088
:104F50002808D1FFE70020C0434CF208181309E0ED
:104F60000C3132200B4AF60321C0F2550101606A70
:104F7000421056114600051CBFF36F8F7C100400D1
:104F8000684090120B14E18E10080120049002E09A
:104F90000006201DFFE7049805B07047B0B587B044
:104FA00013460C46054605900491039240F200100A
:104FB0007E12596A12166E1288B841E010080293E8
:104FC0000194009503B210070120069038E02A42B0
:104FD000205C3204EA500440F2041021F83006FF4D
:104FE000E740F2502024040068101EC6D11E56016E
:104FF0001E321CF8120A646310425CE30AE0B81225
:10500000007204111EFFE7069807B0B0BD82B00120
:10501000460190009180400401229162452811D000
:105020001004084602F2072C81B0BA16260615B8FD
:10503000714696C8AE054898360098160098100438
:10504000009801A6100480B584E8100A0290029826
:105050004FF6FF72CE044310400E70040002CF0ED4
:1050600014100F22120510400122520590420191A6
:105070000B64170298C2101501CFF6E071401801B9
:1050800021FFF7A4FE039005E00298000C129E0C8D
:10509000380CFFE7039804B080BD80B586D048097E
:1050A0000490039100200290D22809029803998865
:1050B000420FD21E101202994A1C029289004058D7
:1050C000FFF7B8FF002803B818080120059003E097
:1050D000EBB416059010040598064A5804B0B5883C
:1050E0004220120690059104920598C01C03218865
:1050F00043059006BC1271BC0C0C2C710840069044
:10510000039302940195360316217021681404005C
:10511000283F369E064003040752049800F03CF8EE
:105120008A100B07900CE00698001D06906410048E
:105130001D04907E1C051F0590BCA8031A07841847
:10514000040798088456839C164222700400780154
:105150000A90070002019A101810D204104206208B
:105160003C0601980091037E0305163C05322E761D
:10517000002E36532E857E85386D5E0429CA05467D
:10518000341D98037F901DB804281100680499000D
:10519000900846FFF76CFF009981423821220512E2
:1051A0005632A81A655642000110056CDC02FF0158
:1051B0006108610102310001002100C1400000309E
:1051C000B54D4620B4456903699946C36882684174
:0C51D000680068A84720BCA94630BD005C
:10D000007FE97FE9F5F710BE7FE97FE9F5F726BEF6
:10D010007FE97FE9F5F744BE7FE97FE9F5F770BE68
:10D020007FE97FE9F5F790BE7FE97FE9F6F78CB8F5
:10D030007FE97FE9F6F7E4B87FE97FE9F6F7E8B83A
:10D040007FE97FE9F6F7ECB87FE97FE9F6F7F6B814
:10D050007FE97FE9F6F730B97FE97FE9F6F73AB97A
:10D060007FE97FE9F6F744B97FE97FE9F6F74EB942
:10D070007FE97FE9F5F71EB87FE97FE9F5F79AB810
:10D080007FE97FE9F5F7A6B87FE97FE9F5F7B0B862
:10D090007FE97FE9F5F7BCB87FE97FE9F5F7D4B818
:10D0A0007FE97FE9F5F716B97FE97FE9F5F726B95A
:10D0B0007FE97FE9F5F73CB97FE97FE9F5F746BC01
:10D0C0007FE97FE9F4F7DEBE7FE97FE9F4F70EBF81
:10D0D0007FE97FE9F5F76AB97FE97FE9F5F784B978
:10D0E0007FE97FE9F5F738BA7FE97FE9F5F722BCF8
:10D0F0007FE97FE9F5F742BC7FE97FE9F5F766BC98
:10D100007FE97FE9F6F7B2BC7FE97FE9F6F7DCBD9E
:10D110007FE97FE9F6F7E8BD7FE97FE9F6F706BE2C
:10D120007FE97FE9F6F71CBE7FE97FE9F6F7ACBE41
:10D1300000000000000000000000000000000000EF
:10D14000FFFFFFFFFFFFFFFFFFFFFFFFFFFFFFFFEF
:10D15000FFFFFFFFFFFFFFFFFFFFFFFFFFFFFFFFDF
:10D16000FFFFFFFFFFFFFFFFFFFFFFFFFFFFFFFFCF
:00000001FF
